:1000000019C028C027C026C025C024C023C022C0D4
:1000100021C020C01FC01EC01DC01CC01BC01AC0F4
:1000200019C018C017C016C015C014C013C012C024
:1000300011C010C011241FBECFEFD4E0DEBFCDBF72
:1000400011E0A0E0B1E001C01D92A032B107E1F7DC
:100050006AD009C1D5CF08950895089508950895E7
:1000600008950895089508950895089508958FE2D4
:1000700090E0909311018093100180E390E09093C1
:1000800013018093120181E390E090931501809316
:10009000140182E390E0909317018093160183E3AB
:1000A00090E0909319018093180184E390E090937D
:1000B0001B0180931A0185E390E090931D018093CA
:1000C0001C0186E390E090931F0180931E01089528
:1000D00008950895089508950895089588E690E094
:1000E000909303018093020189E690E090930501CB
:1000F000809304018AE690E09093070180930601C3
:100100008BE690E090930901809308018CE690E0E3
:1001100090930B0180930A018DE690E090930D017E
:1001200080930C010895EF92FF920F931F93DF933A
:10013000CF93CDB7DEB768970FB6F894DEBF0FBE8A
:10014000CDBF4FE250E0509311014093100180E386
:1001500090E0909313018093120181E390E09093DB
:1001600015018093140182E390E09093170180932E
:10017000160183E390E0909319018093180184E3C2
:1001800090E090931B0180931A0185E390E0909397
:100190001D0180931C0186E390E090931F018093E2
:1001A0001E0128E630E0309303012093020189E626
:1001B00090E090930501809304018AE690E090938B
:1001C0000701809306018BE690E0909309018093EC
:1001D00008018CE690E090930B0180930A018DE674
:1001E00090E090930D0180930C015A8349833C83E6
:1001F0002B835A8749873C872B875A8B498B3C8BAB
:100200002B8B5E834D8338872F835E874D87388B9A
:100210002F875E8B4D8B388F2F8B00E010E07E0197
:100220000894E11CF11CE0910E01F0910F01EE0F1A
:10023000FF1F8091000190910101E80FF91FEE0F5F
:10024000FF1FE00FF11FEE0FFF1FEE0DFF1D0190CE
:10025000F081E02D09950F5F1F4F0130110519F353
:0A02600000E010E0E0CFF894FFCFBB
:00000001FF
