:1000000019C028C027C026C025C024C023C022C0D4
:1000100021C020C01FC01EC01DC01CC01BC01AC0F4
:1000200019C018C017C016C015C014C013C012C024
:1000300011C010C011241FBECFEFD4E0DEBFCDBF72
:1000400011E0A0E0B1E001C01D92A532B107E1F7D7
:100050004FD146C2D5CF80917A00806480937A00D8
:1000600080917A0086FDFCCF809179008F3630F048
:10007000809102018F5F8093020119C08091790005
:10008000883330F0809103018F5F809303010FC0AC
:1000900080917900893230F0809104018F5F8093E4
:1000A000040105C0809101018F5F8093010180915F
:1000B00000018F5F809300018A3011F510920001DA
:1000C00040E020E030E0E42FF0E0EF5FFE4FD901A8
:1000D000AF5FBE4F90818C91981708F4422F2F5F2D
:1000E0003F4F2430310579F74093130110921401EA
:1000F000109201011092020110920301109204016A
:100100000895ECE7F0E080818F77808380818064C0
:1001100080838081806280838081807F80838081F2
:100120008083EAE7F0E080818068808380818F7D32
:100130008083AEE7B0E08C9181608C938081876092
:10014000808310921401109213010895359903C011
:1001500020E030E002C022E030E086B190E044E0F0
:10016000969587954A95E1F781709070282B392BE9
:100170003093060120930501089587B18F7C87B9DC
:10018000359903C020E030E002C022E030E086B1C3
:1001900090E054E0969587955A95E1F781709070BC
:1001A000282B392B3093060120930501089585B142
:1001B0008B7C85B9089585B18B7D85B92C9A08957E
:1001C00085B18B7E85B92D9A08952A9885B1806373
:1001D00085B9089585B18F7C85B92A9A08952D989F
:1001E00085B1846185B908952C9885B1846285B9FB
:1001F000089585B1846385B9089584B1846384B911
:1002000087ED90E090931601809315018BED90E0BF
:10021000909318018093170180EE90E090931A015B
:100220008093190185EE90E090931C0180931B014F
:100230008AEE90E090931E0180931D018FEE90E076
:100240009093200180931F0184EF90E0909322010E
:100250008093210189EF90E0909324018093230102
:10026000089508955E985D9A5F98289A08955E9A19
:100270005D985F9A289808955E985D9A5F9A28988D
:1002800008955E9A5D985F98289A08955E985D98A3
:100290002F98289808958AB1806E8AB9209A5E981E
:1002A0005D982F98289881E391E0909308018093BE
:1002B000070182E391E090930A018093090187E3AB
:1002C00091E090930C0180930B018CE391E090936B
:1002D0000E0180930D0181E491E0909310018093D1
:1002E0000F0186E491E0909312018093110108952B
:1002F0000F931F93DF93CF93CDB7DEB7C054D04099
:100300000FB6F894DEBF0FBECDBFFBDE87B18F7C8A
:1003100087B9359903C020E030E002C022E030E028
:1003200086B190E054E0969587955A95E1F78170F3
:100330009070282B392B309306012093050184B14E
:10034000846384B987ED90E0909316018093150142
:100350008BED90E0909318018093170180EE90E070
:1003600090931A018093190185EE90E090931C01FF
:1003700080931B018AEE90E090931E0180931D01F3
:100380008FEE90E09093200180931F0184EF90E026
:10039000909322018093210189EF90E090932401B2
:1003A0008093230178DFE0911501F0911601FA8323
:1003B000E98380911101909112019C838B8360915C
:1003C0001D0170911E017A8B698B9C8B8B8B4091E8
:1003D000190150911A015AA349A39CA38BA3209100
:1003E0001701309118013AAB29AB9CAB8BABFE8364
:1003F000ED8398878F837E8B6D8B988F8F8B5EA319
:100400004DA398A78FA33EAB2DAB98AF8FABFA87C8
:10041000E9879C878B877A8F698F9C8F8B8F5AA7F0
:1004200049A79CA78BA73AAF29AF9CAF8BAFFE879C
:10043000ED87988B8F877E8F6D8F98A38F8F5EA7A8
:100440004DA798AB8FA73EAF2DAFFE01FF969183CE
:1004500080838E010F5F1F4FFEDD359903C020E0C2
:1004600030E002C022E030E086B190E044E09695B2
:1004700087954A95E1F781709070822B932B90932A
:10048000060180930501E0911301F0911401EE0F34
:10049000FF1FEE0FFF1FE80FF91FEE0FFF1FEE0FFC
:1004A000FF1FE00FF11F0190F081E02D0995E09111
:1004B0001301F0911401EE0FFF1FEE0FFF1F80914B
:1004C000050190910601E80FF91FEE0FFF1FEE0FD7
:1004D000FF1FE00FF11F0280F381E02D0995BCCFD3
:0404E000F894FFCFBE
:00000001FF
