:103800000C947E1C0C94D41E0C949B1C0C949B1C3E
:103810000C949B1C0C949B1C0C949B1C0C949B1C4C
:103820000C949B1C0C949B1C0C949B1C0C949B1C3C
:103830000C949B1C0C949B1C0C949B1C0C949B1C2C
:103840000C949B1C0C949B1C0C949B1C0C949B1C1C
:103850000C949B1C0C949B1C0C949B1C0C949B1C0C
:103860000C949B1C0C949B1C0600FF0901A1028573
:1038700001750895060900B2020185027508958256
:103880000900B20201C01201010100000008C016C7
:10389000DF05000101020001090229000101008089
:1038A0000A090400000103000000092101010001D0
:1038B000221E000705810308000A0705010308000E
:1038C0000A040309042A0373007500620073007080
:1038D000006100630065002E00640079006E0064E2
:1038E000006E0073002E0069006E0066006F000C11
:1038F0000348004900440042004C000011241FBE50
:10390000CFEFD4E0DEBFCDBF11E0A0E0B1E0ECEE40
:10391000FFE302C005900D92A830B107D9F711E07E
:10392000A8E0B1E001C01D92A53CB107E1F70E94FB
:10393000DC1C0C94F41F0C94001CFC01838181306E
:1039400041F486E898E39093AA018093A90182E16B
:103950000895823041F488E998E39093AA01809316
:10396000A90189E20895823211F080E0089588E685
:1039700098E39093AA018093A9018EE1089581E0D4
:103980000895FC01808180768032A1F481818130AC
:1039900041F480E091E09093AA018093A90186E030
:1039A0000895893039F4868180938D0110928E01BB
:1039B0008FEF089580E0089581E085BF82E085BFA4
:1039C0002EE088E190E00FB6F894A895809360000F
:1039D0000FBE209360005198599A0E94821D509A00
:1039E00020E048E853E103C0CA010197F1F72150F4
:1039F000D9F75098A895499B0AC0789403C0A89518
:103A00000E948F1D809108018823C9F3F894509A71
:103A100088E10FB6F89480936000109260000FBEAA
:103A200081E180935700E89581E085BF15BEE0E015
:103A3000F0E0099580E090E008951F93FC01162FB7
:103A400080918D01882309F45AC080918D018617D9
:103A500010F410918D0180918E01882331F48081C2
:103A6000813019F4809308014BC020918E0130E021
:103A7000265F3E4FC901BF01412F50E00E94EB1F5E
:103A800080918E01810F80938E0180918D01811B29
:103A900080938D0180918D01882311F080E030C0EA
:103AA00040910B0150910C01F89483E0FA0180934E
:103AB0005700E895789407B600FCFDCF20E030E091
:103AC00061E0F894F901E40FF51FD901A35FBE4F3F
:103AD0008D919C910C0160935700E8951124789486
:103AE0002E5F3F4F2038310561F7F89485E0FA01E9
:103AF00080935700E895789407B600FCFDCF81E0ED
:103B00001F910895E9E6F0E0808183608083E89A60
:103B10008BE480939B018AE580939A0108951F931B
:103B2000CF93DF936091AB01635067FDA6C0809196
:103B3000A801CCE0D0E0C81BD109C155DE4F80916F
:103B4000A7018D3209F086C0683009F094C083EC7B
:103B500080938F018AE58093060110920901888184
:103B6000807629F0CE010E94C11C282F60C09A8166
:103B7000109298018981882321F41092990122E002
:103B80004FC0853019F49093AC0149C0863099F547
:103B90008B81813031F1823021F18330F1F499232E
:103BA00041F481EC98E39093AA018093A90124E069
:103BB0001EC0913041F485EC98E39093AA01809364
:103BC000A9012AE214C0923089F48FEE98E3909311
:103BD000AA018093A9012CE00AC0813211F082323F
:103BE00029F4CE010E949D1C282F01C020E080E412
:103BF000809309011CC0883021F421E08EEA91E015
:103C000011C0893019F49093AE0109C08A3011F4C3
:103C100021E006C08B3019F48BE480939B0120E0F7
:103C200088E991E09093AA018093A90109C02F3FF0
:103C300039F4888187FD2E8180E88093090106C0D0
:103C40008F81882319F48E81821708F0822F809348
:103C5000070111C08091090187FF0DC0CE010E94AC
:103C60001D1D8F3F21F48EE18093060104C088233F
:103C700011F0109207011092AB018091060184FFB0
:103C80004AC0809107018F3F09F445C0182F893041
:103C900008F018E0811B8093070180918F0198E85C
:103CA000892780938F01112341F12091A90130913F
:103CB000AA018091090186FF0DC0A0E9B1E080E072
:103CC00090E0F901E80FF91FE491ED9301961817C0
:103CD000C1F708C0912FD901E0E9F1E08D918193FE
:103CE0009150E1F71150812F90E01F5F0196820FF4
:103CF000931F9093AA018093A90180E991E0612F1D
:103D00000E94D01E612F6C5F6C3019F08FEF809392
:103D10000701609306019AE089B1857031F49150F2
:103D2000D9F71092AC011092A601DF91CF911F91AB
:103D300008951F93DC01162F80919A0184FF07C01C
:103D400080919B0198E8892780939B0103C08AE5B5
:103D500080939A01912FECE9F1E08D91819391503C
:103D6000E1F78CE991E0612F0E94D01E1C5F109357
:103D70009A011F910895A82FB92F80E090E041E0AB
:103D800050EA60956F5F58F42D9138EF8227979530
:103D9000879510F0842795273F5FC8F3F3CF0895E8
:103DA000EADF8D939D930895CF93CFB7CF93DF93A1
:103DB000489BFECF489B11C0489B0FC0489B0DC03D
:103DC000489B0BC0489B09C0489B07C0489B05C047
:103DD000489B03C0489B01C083C06F93C091A8015A
:103DE000DD27C155DE4F2F9320E400C065E0489BDE
:103DF00003C02F916F91DECF0F931F934F9345E533
:103E00005F9355E53F933BE014E009B105702EC088
:103E10006A95C9F03150D8F109B1057001130BC092
:103E200008942795299320E4555500F46A9569F77D
:103E300001E069B10BC0102F66E02695299320E4BC
:103E4000555518F3E2CF0FEF69B10000162F455515
:103E500000F0404066E015700030E2F221F0000012
:103E600009B1057003C009B10570A9F0011309C0BB
:103E70000894279568F200C06A95A9F700E069B137
:103E8000E5CF102F66E0269528F20000ECCF11E078
:103E90001CBB002719C03B503195C31BD04011E01B
:103EA0001CBB0881033C09F10B34F9F02091A601F9
:103EB0001981110F1213EDCF4A81441F093651F1B8
:103EC0000D3211F0013E29F70093AD013F915F9152
:103ED0004F911F910F912F916F91CCB3C0FD68CF7F
:103EE000DF91CF91CFBFCF9118950091AD01002305
:103EF00069F31091AB01112381F5343082F13093D5
:103F0000AB010093A7011091A8013BE0311B309356
:103F1000A80125C00091AB010130FCF40AE54F7007
:103F200049F43091060134FD1BC000930601CFE82F
:103F3000D1E01AC030919A0134FD12C000939A0169
:103F4000CBE9D1E011C0052710E000C00BB919C0C2
:103F5000052710E0221F00C01DC04AE502C032ED57
:103F6000432FC4E1D0E032E01AB11560589A0BB18A
:103F70001AB955E020E869E420FF05270BB9279519
:103F8000179500C000001C3FF0F66695A8F7A1F752
:103F900020FF05270BB92795179500001C3FC0F699
:103FA00029913A9541F70A7F1091AC01110F0BB995
:103FB000C651D04011F01093A60111E01CBB016066
:103FC0001AB11A7F402F4A7F55E05A95F1F70BB985
:103FD0001AB94BB97BCFFB01DC0102C001900D92F5
:0C3FE00041505040D8F70895F894FFCFEE
:083FEC001E930880FF3F5AFFFD
:0400000300003800C1
:00000001FF
