:1000000019C028C027C026C025C024C023C022C0D4
:1000100021C020C01FC01EC01DC01CC01BC01AC0F4
:1000200019C018C017C016C015C014C013C012C024
:1000300011C010C011241FBECFEFD4E0DEBFCDBF72
:1000400011E0A0E0B1E001C01D92AE31B107E1F7CF
:10005000C2D052C1D5CF86B190E024E09695879565
:100060002A95E1F7817090709093010180930001CF
:10007000089587B18F7C87B986B190E034E096957A
:1000800087953A95E1F78170907090930101809384
:100090000001089585B18B7C85B9089585B18B7D6C
:1000A00085B92C9A089585B18B7E85B92D9A0895CE
:1000B0002A9885B1806385B9089585B18F7C85B90B
:1000C0002A9A08952D9885B1846185B908952C9850
:1000D00085B1846285B9089585B1846385B9089531
:1000E00084B1846384B98AE490E090930F01809393
:1000F0000E018EE490E0909311018093100183E54E
:1001000090E0909313018093120188E590E0909322
:100110001501809314018DE590E090931701809371
:10012000160182E690E0909319018093180187E60A
:1001300090E090931B0180931A018CE690E09093DD
:100140001D0180931C01089508955E985D9A5F9843
:10015000289A08955E9A5D985F9A289808955E9807
:100160005D9A5F9A289808955E9A5D985F98289A9C
:1001700008955E985D982F98289808958AB1806EAA
:100180008AB9209A5E985D982F98289884EA90E022
:10019000909303018093020185EA90E0909305011A
:1001A000809304018AEA90E090930701809306010E
:1001B0008FEA90E0909309018093080184EB90E02E
:1001C00090930B0180930A0189EB90E090930D01CD
:1001D00080930C0108950F931F93DF93CF93CDB7B6
:1001E000DEB728970FB6F894DEBF0FBECDBF87B13C
:1001F0008F7C87B986B190E074E0969587957A9563
:10020000E1F781709070909301018093000184B1B7
:10021000846384B98AE490E090930F0180930E0187
:100220008EE490E0909311018093100183E590E0BB
:10023000909313018093120188E590E0909315014B
:10024000809314018DE590E090931701809316013F
:1002500082E690E0909319018093180187E690E080
:1002600090931B0180931A018CE690E090931D01FE
:1002700080931C0183DF80911001909111019A837A
:10028000898380910601909107019C838B838091E3
:100290001601909117019E838D83809102019091A8
:1002A000030198878F838E010F5F1F4FE6B1F0E047
:1002B00064E0F695E7956A95E1F7E170F070F093E8
:1002C0000101E0930001EE0FFF1FEE0FFF1FE00F93
:1002D000F11F0190F081E02D0995E0910001F0916E
:1002E0000101EE0FFF1FEE0FFF1FE00FF11F028055
:0C02F000F381E02D0995DACFF894FFCFE0
:00000001FF
