:100000000C9487000C94C9010C94A4000C94A400D7
:100010000C94A4000C94A4000C94A4000C94A400D0
:100020000C94A4000C94A4000C94A4000C94A400C0
:100030000C94A4000C94A4000C94A4000C94A400B0
:100040000C94A4000C94A4000C94A4000C94A400A0
:100050000C94A4000C94A4000C94A4000C94A40090
:100060000C94A4000C94A4001201010100000008EB
:10007000C016DF050001010200010902290001018B
:1000800000800A09040000010300000009210101A9
:100090000001221E000705810308000A070501036D
:1000A00008000A0600FF0901A102850175089502F2
:1000B0000900B202018502750895030900B2020128
:1000C000C004030904300372006F0068006D002E45
:1000D00000640072006D002E0064006F0073006801
:1000E0000069007300680061002E00610063002E4B
:1000F000006A0070000E034C00540052004100439F
:100100000045000A036600750067006100001124C5
:100110001FBECFEFD4E0DEBFCDBF11E0A0E0B1E065
:10012000ECE5F8E002C005900D92AA30B107D9F7CE
:1001300011E0AAE0B1E001C01D92AE34B107E1F7D1
:100140000E94FD000C942C040C940000E09100012E
:10015000F091010109950895E0910201F0910301E8
:1001600009950895E0910401F0910501099508951C
:10017000E0910601F091070109950895FC01838142
:10018000813041F488E690E090933301809332010E
:1001900082E10895823041F48AE790E09093330140
:1001A0008093320189E20895823211F080E008954F
:1001B00083EA90E090933301809332018EE10895B9
:1001C00081E00895FC01808180768032A1F48181F4
:1001D000813041F485E191E09093330180933201C5
:1001E00082E00895893039F4868180931401109259
:1001F00017018FEF089580E008952EE088E190E0E8
:100200000FB6F894A895809360000FBE209360000D
:1002100080E680937C0081E080937E0010927B00DA
:1002200087E980937A0080917A00806480937A00D5
:10023000229A259A249A559A569A209A579A0E9459
:10024000E002509A20E048E853E104C0A895CA01B2
:100250000197F1F72150D1F750987894A8950E9412
:10026000ED02349B04C080911501816003C0809130
:1002700015018E7F80931501359B04C08091150177
:10028000826003C0809115018D7F8093150180915C
:100290007A0084FFE3CF80917900809316018091EA
:1002A0007A00806180937A0080917A0080648093E4
:1002B0007A00D4CF1F93482F792F162F80911401E5
:1002C000882309F44AC080911401861710F4109114
:1002D00014012091170130E0255F3E4FC901642FC2
:1002E000412F50E00E94230480911701810F8093D9
:1002F000170180911401811B8093140180911401D6
:10030000882311F080E02AC080910C0180FF02C098
:100310002A9A01C02A9881FF02C02D9A01C02D9807
:1003200082FF02C02C9A01C02C9880910D0180FFA1
:1003300002C05D9A01C05D9881FF02C05E9A01C053
:100340005E9880910E0180FF02C0289A01C0289813
:1003500081FF02C05F9A01C05F9881E01F910895FC
:10036000A82FB92F80E090E041E050EA60956F5FE0
:1003700058F42D9138EF82279795879510F08427B0
:1003800095273F5FC8F3F3CF0895EADF8D939D93E0
:100390000895CF93CFB7CF93DF93489BFECF489B71
:1003A00011C0489B0FC0489B0DC0489B0BC0489B89
:1003B00009C0489B07C0489B05C0489B03C0489B99
:1003C00001C083C06F93C0913101DD27C85CDE4F4F
:1003D0002F9320E400C065E0489B03C02F916F91EC
:1003E000DECF0F931F934F9345E55F9355E53F9302
:1003F0003BE014E009B105702EC06A95C9F0315098
:10040000D8F109B1057001130BC008942795299301
:1004100020E4555500F46A9569F701E069B10BC015
:10042000102F66E02695299320E4555518F3E2CF66
:100430000FEF69B10000162F455500F0404066E00F
:1004400015700030E2F221F0000009B1057003C020
:1004500009B10570A9F0011309C00894279568F245
:1004600000C06A95A9F700E069B1E5CF102F66E0FA
:10047000269528F20000ECCF11E01CBB002719C024
:100480003B503195C31BD04011E01CBB0881033C9D
:1004900009F10B34F9F020912F011981110F12137A
:1004A000EDCF4A81441F093651F10D3211F0013E62
:1004B00029F7009336013F915F914F911F910F9162
:1004C0002F916F91CCB3C0FD68CFDF91CF91CFBF9B
:1004D000CF91189500913601002369F310913401F2
:1004E000112381F5343082F13093340100933001CF
:1004F000109131013BE0311B3093310125C0009157
:1005000034010130FCF40AE54F7049F430910801E0
:1005100034FD1BC000930801C8E1D1E01AC030913E
:10052000230134FD12C000932301C4E2D1E011C0C5
:10053000052710E000C00BB919C0052710E0221FE5
:1005400000C01DC04AE502C032ED432FC4E1D0E037
:1005500032E01AB11560589A0BB11AB955E020E88B
:1005600069E420FF05270BB92795179500C0000007
:100570001C3FF0F66695A8F7A1F720FF05270BB9F9
:100580002795179500001C3FC0F629913A9541F731
:100590000A7F10913501110F0BB9C651D04011F0EF
:1005A00010932F0111E01CBB01601AB11A7F402F7C
:1005B0004A7F55E05A95F1F70BB91AB94BB97BCF81
:1005C000E9E6F0E0808183608083E89A8BE48093A1
:1005D00024018AE58093230108951F93CF93DF932D
:1005E00060913401635067FDB0C080913101CCE06F
:1005F000D0E0C81BD109C85CDE4F809130018D323C
:1006000009F090C0683009F09EC083EC8093180117
:100610008AE58093080110920A018881807629F08A
:10062000CE010E94AC00282F6AC09A81109221014D
:100630008981882321F41092220122E059C085305B
:1006400019F49093350153C08630E9F58B818130E0
:1006500081F1823071F1833041F5992341F481ECCD
:1006600090E0909333018093320124E028C09130D0
:1006700041F485EC90E0909333018093320120E3C4
:100680001EC0923041F485EF90E090933301809347
:1006900032012EE014C0933089F483E091E090930E
:1006A0003301809332012AE00AC0813211F0823294
:1006B00029F4CE010E94A600282F01C020E080E48A
:1006C00080930A011CC0883021F421E087E391E087
:1006D00011C0893019F49093370109C08A3011F4A0
:1006E00021E006C08B3019F48BE48093240120E0D4
:1006F00081E291E0909333018093320109C02F3F52
:1007000039F4888187FD2E8180E880930A0106C034
:100710008F81882319F48E81821708F0822F8093AD
:10072000090111C080910A0187FF0DC0CE010E940E
:10073000B8008F3F21F48EE18093080104C0882324
:1007400011F010920901109234018091080184FF88
:100750004AC0809109018F3F09F445C0182F8930A4
:1007600008F018E0811B809309018091180198E836
:10077000892780931801112341F120913201309192
:10078000330180910A0186FF0DC0A9E1B1E080E04C
:1007900090E0F901E80FF91FE491ED930196181725
:1007A000C1F708C0912FD901E9E1F1E08D91819362
:1007B0009150E1F71150812F90E01F5F0196820F59
:1007C000931F909333018093320189E191E0612F6F
:1007D0000E94C501612F6C5F6C3019F08FEF809320
:1007E0000901609308019AE089B1857031F4915054
:1007F000D9F71092350110922F01DF91CF911F91FF
:1008000008951F93DC01162F8091230184FF07C0F8
:100810008091240198E889278093240103C08AE508
:1008200080932301912FE5E2F1E08D918193915026
:10083000E1F785E291E0612F0E94C5011C5F1093F2
:1008400023011F910895FB01DC0102C001900D926C
:0C08500041505040D8F70895F894FFCFB5
:0A085C00BE00E200E0005A015AFF5E
:00000001FF
