:1018000063C0C3C27CC07BC07AC079C078C077C0D7
:1018100076C075C074C073C072C071C070C06FC034
:101820006EC06DC06CC06BC06AC069C068C067C064
:1018300066C065C00600FF0901A102850175089513
:10184000060900B202018502750895420900B2023C
:1018500001C01201010100000008C016DF050001EF
:101860000102000109022900010100800A090400A7
:10187000000103000000092101010001221E0007F0
:1018800005810308000A0705010308000A0403098B
:10189000042A037300750062007300700061006326
:1018A0000065002E00640079006E0064006E007315
:1018B000002E0069006E0066006F000C03480049AE
:1018C00000440042004C000011241FBECFEFD4E0C2
:1018D000DEBFCDBF11E0A0E0B1E0EEECFFE102C061
:1018E00005900D92A031B107D9F711E0A0E1B1E068
:1018F00001C01D92AD38B107E1F755D066C380CF66
:10190000E0910601F09107010994E0910801F0913E
:1019100009010994E0910A01F0910B010994E09109
:101920000C01F0910D010994FC018381813041F497
:1019300082E598E1909372018093710182E10895AC
:10194000823041F484E698E19093720180937101B2
:1019500089E20895823211F080E0089584E398E1ED
:1019600090937201809371018EE1089581E0089552
:10197000FC01808180768032A1F48181813041F444
:1019800080E091E0909372018093710186E0089568
:10199000893039F4868180935501109256018FEF7A
:1019A000089580E0089581E085BF82E085BF2EE044
:1019B00088E190E00FB6F894A895809360000FBE80
:1019C0002093600025982D9A92D0579A20E048E8FD
:1019D00053E103C0CA010197F1F72150D9F7579895
:1019E000A8951D9909C0789402C0A8958DD08091C2
:1019F00010018823D1F3F894579A88E10FB6F89430
:101A000080936000109260000FBE81E180935700C8
:101A1000E89581E085BF15BEE0E0F0E0099580E043
:101A200090E008951F93FC01162F809155018823A3
:101A300009F45AC080915501861710F41091550190
:101A400080915601882331F48081813019F480938C
:101A500010014BC02091560130E02E5E3E4F412FC9
:101A600050E0BF01C901A8D280915601810F809337
:101A7000560180915501811B80935501809155013C
:101A8000882311F080E031C060911301709114013E
:101A9000F89483E0FB0180935700E895789407B6AB
:101AA00000FCFDCF40E050E0A1E0F894CA01860FB1
:101AB000971FFA01EB5EFE4F208131810901FC0185
:101AC000A0935700E895112478944E5F5F4F4034FF
:101AD000510559F7F89485E0FB0180935700E8958C
:101AE000789407B600FCFDCF81E01F910895E9E6E8
:101AF000F0E0808183608083E89A8BE480936301C7
:101B00008AE58093620108951F93CF93DF936091DC
:101B10007301635067FDA4C080917001CCE0D0E0F8
:101B2000C81BD109C958DE4F80916F018D3209F071
:101B300085C0683009F092C083EC809357018AE534
:101B400080930E01109211018881807621F0CE01E0
:101B5000DCDE282F60C09A81109260018981882381
:101B600021F41092610122E04FC0853019F4909366
:101B7000740149C0863099F58B81813039F182300A
:101B800029F18330F9F48A81882341F48DE898E1C2
:101B9000909372018093710124E01DC0813041F463
:101BA00081E998E190937201809371012AE213C058
:101BB000823081F48BEB98E19093720180937101F4
:101BC0002CE009C0813211F0823221F4CE0198DE7E
:101BD000282F01C020E080E4809311011CC08830D0
:101BE00021F421E086E791E011C0893019F4909347
:101BF000760109C08A3011F421E006C08B3019F457
:101C00008BE48093630120E080E691E09093720181
:101C10008093710109C02F3F39F4888187FD2E819F
:101C200080E88093110106C08F81882319F48E818A
:101C3000821708F0822F80930F0110C0809111014C
:101C400087FF0CC0CE016BDE8F3F21F48EE18093C5
:101C50000E0104C0882311F010920F01109273013D
:101C600080910E0184FF49C080910F018F3F09F4DC
:101C700044C0182F893008F018E0811B80930F01B1
:101C80008091570198E8892780935701112341F1EA
:101C900020917101309172018091110186FF0DC078
:101CA000A8E5B1E080E090E0F901E80FF91FE491C8
:101CB000ED9301961817C1F708C0912FD901E8E5F7
:101CC000F1E08D9181939150E1F71150812F90E0D7
:101CD0001F5F0196820F931F909372018093710191
:101CE000612F88E591E04DD0612F6C5F6C3019F069
:101CF0008FEF80930F0160930E019AE089B1847891
:101D000031F49150D9F71092740110926E01DF9165
:101D1000CF911F9108951F93DC01162F80916201CE
:101D200084FF07C08091630198E88927809363014D
:101D300003C08AE580936201912FE4E6F1E08D9182
:101D400081939150E1F7612F84E691E01AD01C5FF6
:101D5000109362011F910895A82FB92F80E090E0A1
:101D600041E050EA60956F5F58F42D9138EF82277B
:101D70009795879510F0842795273F5FC8F3F3CF99
:101D80000895EADF8D939D930895CF93CFB7CF93B6
:101D9000DF934F9BFECF4F9B11C04F9B0FC04F9BBC
:101DA0000DC04F9B0BC04F9B09C04F9B07C04F9B63
:101DB00005C04F9B03C04F9B01C083C06F93C09170
:101DC0007001DD27C958DE4F2F9320E400C065E085
:101DD0004F9B03C02F916F91DECF0F931F934F93B3
:101DE00045E55F9355E53F933BE014E009B1047886
:101DF0002EC06A95C9F03150D8F109B104780113A9
:101E00000BC008942795299320E4555500F46A9552
:101E100069F701E069B10BC0102F66E026952993A0
:101E200020E4555518F3E2CF0FEF69B10000162FEB
:101E3000455500F0404066E014780030E2F221F0B1
:101E4000000009B1047803C009B10478A9F00113B6
:101E500009C00894279568F200C06A95A9F700E0C8
:101E600069B1E5CF102F66E0269528F20000ECCF8F
:101E700011E01CBB002719C03B503195C31BD0405B
:101E800011E01CBB0881033C09F10B34F9F02091EF
:101E90006E011981110F1213EDCF4A81441F0936CB
:101EA00051F10D3211F0013E29F7009375013F9178
:101EB0005F914F911F910F912F916F91CCB3C0FD06
:101EC00068CFDF91CF91CFBFCF9118950091750169
:101ED000002369F310917301112381F5343082F1ED
:101EE0003093730100936F01109170013BE0311B3F
:101EF0003093700125C0009173010130FCF40AE5B4
:101F00004F7049F430910E0134FD1BC000930E0157
:101F1000C7E5D1E01AC03091620134FD12C00093D0
:101F20006201C3E6D1E011C0052710E000C00BB983
:101F300019C0052710E0221F00C01DC04AE502C0DD
:101F400032ED432FC4E1D0E032E01AB114685F9A59
:101F50000BB11AB954E820E869E420FF05270BB952
:101F60002795179500C000001C3FF0F66695A8F76E
:101F7000A1F720FF05270BB92795179500001C3FF7
:101F8000C0F629913A9541F70B7710917401110F22
:101F90000BB9C651D04011F010936E0111E01CBB7B
:101FA00000681AB11B77402F4B7755E05A95F1F72F
:101FB0000BB91AB94BB97BCFFB01DC0102C0019010
:0E1FC0000D9241505040D8F70895F894FFCF8D
:101FCE001E930840FF1F940CB80CB60C120D5AFF4E
:0400000300001800E1
:00000001FF
